:10000000C7EF07F068961200046ED8CF05F0E0CF76
:1000100006F00001E9CF0CF0EACF07F0E1CF08F0DD
:10002000E2CF09F0D9CF0AF0DACF0BF0F3CF12F01C
:10003000F4CF13F0FACF14F0F5CF15F0F6CF16F099
:10004000F7CF17F000C00EF001C00FF002C010F0A3
:1000500003C011F0A0AA30EF00F0A1BA3DEF06F006
:100060000EC000F00FC001F010C002F011C003F08C
:100070000CC0E9FF07C0EAFF078E08C0E1FF09C016
:10008000E2FF0AC0D9FF0BC0DAFF12C0F3FF13C0B2
:10009000F4FF14C0FAFF15C0F5FF16C0F6FF17C035
:1000A000F7FF045006C0E0FF05C0D8FF1000F76A54
:1000B000BE0FF66E000EF7220900F5501200000385
:1000C000FFFFFFFFFFFFFFFFFFFFFFFFFFFFF76ADD
:1000D000DE0FF66E000EF7220900F5501200400008
:1000E0000800000000000000000000000000000008
:1000F0000000000000000000000000000000F76A9F
:100100000E0FF66E010EF7220900F55012000600E0
:10011000FF0901A101190129081580257F7508959E
:1001200002810219012908750895029102C0F76A37
:100130003E0FF66E010EF7220900F5501200000086
:10014000F76A500FF66E010EF7220900F550120003
:100150002000F76A620FF66E010EF7220900F550D3
:100160001200090229000101008032090400000286
:100170000300000009210001000122200007058181
:100180000308000A0705010308000A00F76A9C0F2C
:10019000F66E010EF7220900F55012000100F76A11
:1001A000AE0FF66E010EF7220900F5501200120094
:1001B000F76AC00FF66E010EF7220900F550120023
:1001C00012011001000000400000000000010102C7
:1001D00000016D92699468A402D06894FCD7689875
:1001E00049EF06F0400E0401016F040E4D6E100E33
:1001F0004DC003F4026F880E006F046B040E076F8E
:10020000500E066F0001120070A002D0EBDF70905C
:10021000689A50EF06F06A6A689255EF06F05990B6
:1002200058BE5980589E5850100803E2000E016EC7
:1002300016D059A00BD0036A585039DFFF0802E1ED
:10024000000E01D0010E016E0AD009D0036A585089
:100250002EDFFF0802E1000E01D0010E016E120038
:10026000036A5750700FE96E0F0E0320EA6EEF6AB3
:1002700057C058F0D4DF015218E05750080DF35022
:10028000596AE96E040E5924EA6EEF6A5750080D58
:10029000F350596A586E040E5826000E592258C061
:1002A000E9FF040E5924EA6EEF6A1200010E566E41
:1002B00056500F0805E356C057F0D2DF562AF8D73C
:1002C0001200256A246A4C6A4C520AE1036A4C50B7
:1002D000260FE96E000E0320EA6EEF6A4C2AF4D76F
:1002E0001B6A010E1C6E1A6A12006B6A696A6A6ADE
:1002F000686A6E6A706ADADFE4DF160E706E68A6EE
:1003000002D080DEFCD79F0E6B6E3D0E696E6D983D
:1003100069DF030E1F6E5AEF06F0698469986D82DB
:100320005FEF06F0689C64EF06F052C020F0120008
:100330002068120055C001F054C000F05466012A34
:100340000900F5CFEEFF002EFBD7012EF9D7F86A92
:100350001200506A245025103EE050503F083BE305
:100360001D50FC0F26E2040FF6EF01F023C003F04E
:100370002250EFDE516E1DD023C003F02250BFDEAD
:10038000516E17D0C80E2224526E7F0E2320536E5A
:10039000F86AF76E52C0F6FFEA6A510EE96E556AC6
:1003A000010E546EC7DF05D023C003F0225000DFDA
:1003B000516E222AD8B4232A2450D8B42506240604
:1003C0005050502A036A500FE96E040E0320EA6E63
:1003D00051C0EFFFBFD72450251004E15050400812
:1003E00001E01A6A50C052F0A0DF1200E824F76A58
:1003F000F736070FF66E040EF7220A00F550FA6E74
:100400000800F550F96E6C0378038403A8034F6A63
:10041000236A226A1D6A04011351010A000109E0DE
:10042000030A0DE0010A0FE0220A41E0030A58E046
:1004300073D0256A120E246E030E1D6E6FD0256ACE
:10044000290E246E6BD0020E1D6E4F6A04011251EC
:100450004F5C1AE2C80E2224506E7F0E2320516E8C
:10046000F86A51C0F7FF50C0F6FFEA6A520EE96E13
:10047000556A010E546E00015DDF52502226000EB7
:1004800023224F2AE3D70401C80E2224506E7F0E88
:100490002320516EF86AF76E50C0F6FFEA6A240E08
:1004A000E96E556A010E546E000144DF37D0036ACD
:1004B00004011251000173DE036A226E03C023F0AF
:1004C000223C02D023520AE023C003F0225041DE36
:1004D000036A246E03C025F021D002D029DF2DD07D
:1004E000036A04011451000122DE036A226E03C074
:1004F00023F0223C02D023520DE0010E1D6E036A50
:100500000401145100011CDE036A246E03C025F0AF
:1005100005D002D00DDF11D00BDF0FD0040117532F
:1005200008E1255203E12450165D03E2256A16C452
:1005300024F0010E1A6E00010CDF12004E5204E18D
:10054000040E1F6EB3DEB3D0050E1F6E040E516E87
:10055000900E506E010E4F6E4F500F08D8A0A7D0CE
:100560004FC057F07DDE526A036A4F50A0DDFF088E
:100570004FE0040E526ED8904F34036AA8DD090094
:10058000F5CF03F0536E03C054F04F50080DF350F5
:10059000576A566E010E5624016E000E5720036EE8
:1005A00001C0E9FF040E0324EA6E53C0EFFF4F5071
:1005B000080DF350576A566E020E5624016E000E57
:1005C0005720036E01C0E9FF040E0324EA6E51C0F8
:1005D000ECFFED5250C0EFFFD8904F34036A77DD47
:1005E0000900F5CF03F0502603505122880E556EB6
:1005F00054A001D0558054A201D055824F50080D0F
:10060000F350576AE96E040E5724EA6E55C0EFFFA7
:10061000036A4F504CDDFF0834E052824F50080D02
:10062000F350576A566E040E5626000E5722020EDD
:100630005624016E000E5720036E01C0E9FF040E20
:100640000324EA6E51C0ECFFED5250C0EFFFD8908A
:100650004F34036A3CDD0900F5CF03F05026035008
:1006600051224F50080DF350576A566E040E56260D
:10067000000E572256C0E9FF040E5724EA6E400EC2
:10068000EF6E5250060802E10E0E526E036A4F5092
:100690000EDD010801E05288036A4F50700FE96EC9
:1006A0000F0E0320EA6E52C0EFFF4F2A55D7A6EF78
:1006B00003F004011151000A00010DE0010A14E0E9
:1006C000020A1FE0060A29E0030A2EE00E0A2EE0C5
:1006D000010A32E040D01CC050F40401516B020EFC
:1006E000526E000122DE38D00401122D07D0010E17
:1006F0001C16526A000119DE03D00401000118DE45
:100700002BD00401122D06D01C82526A00010DDE8E
:1007100003D0040100010CDE1FD0020E1A6E12C4B9
:1007200021F0526A02DE18D072DE16D01BC050F4DF
:10073000010E526EFADD10D004011251010809E3D6
:1007400012C41BF012C44EF00001F8D6526AEDDD5F
:100750000401000101D0ECDDBFEF04F01BC04EF03E
:1007600004011151000A000107E00A0A0DE0010A24
:1007700028E00D0A38E039D00401506B516B020EAD
:10078000526E0001D2DD32D04E5219E0010E4E5CA5
:10079000036AFCDC016E0401145DD8A002D00001E4
:1007A0000ED0036A1451260FE96E000E0320EA6E84
:1007B000EFCF50F4010E526E0001B7DD01D0B8DD6D
:1007C00015D04E520EE0036A04011451260FE96E53
:1007D000000E0320EA6E12C4EFFF526A0001A5DD8D
:1007E00001D0A6DD03D013DE01D0A2DDBFEF04F0FF
:1007F0004F904EBE4F804E9E4FA011D04E50080DD0
:10080000F350516A506E040E5026000E512250C013
:10081000E9FF040E5124EA6E880EEF6E09D04E50A7
:10082000080DF350516AE96E040E5124EA6EEF6A26
:10083000036A4E50700F016E0F0E032201C0E9FFD4
:1008400003C0EAFFEF9085EF04F04F904EBE4F805B
:100850004E9E4FA011D04E50080DF350516A506E6D
:10086000040E5026000E512250C0E9FF040E512400
:10087000EA6E840EEF6E0AD04E50080DF350516AA6
:10088000E96E040E5124EA6E840EEF6E8BEF04F0D5
:100890004F904EBE4F804E9E4FA011D04E50080D2F
:1008A000F350526A516E040E5126000E522251C06E
:1008B000E9FF040E5224EA6EEFCF50F00AD04E50FA
:1008C000080DF350526AE96E040E5224EA6EEFCF1F
:1008D00050F050AE02D050B402D0000E01D0010E44
:1008E000016E95EF04F014C458F099DC015228E031
:1008F00004011151010A000105E0020A09E0030A9E
:100900000DE01DD014C44EF073D7526A0EDD18D01E
:1009100014C44EF09AD7526A08DD12D00401506B0D
:10092000516B14C44EF00001B3D7015204E0010E24
:100930000401506F0001020E526EF7DC01D0F8DCAA
:10094000BFEF04F0040111510001F2DCBFEF04F02D
:100950001A6A040110517F0B000A000107E0010A26
:1009600007E0030A07E0230A07E008D0A2D607D071
:10097000F5D605D0B8D703D0E5D701D0D9DCEDEF57
:1009800005F04E50080DF350546AE96E040E5424DD
:10099000EA6EEFCF50F04F50020806E150AC02D0A3
:1009A0004F6A02D0010E4F6E4F50030813E1840EC0
:1009B000506E4E50080DF350546A536E040E532679
:1009C000000E542253C0E9FF040E5424EA6E840E34
:1009D000EF6E07D04F2C03D0C80E506E02D0880E99
:1009E000506ED8904E34036A67EC00F00900F5CFE2
:1009F00003F0516E03C052F04E50080DF350546A8C
:100A0000536E010E5324016E000E5420036E01C07C
:100A1000E9FF040E0324EA6E51C0EFFF52A001D09B
:100A2000508052A201D050824E50080DF350546AAB
:100A3000E96E040E5424EA6E50C0EFFF1200036A00
:100A40005350700FE96E0F0E0320EA6EEF5212E062
:100A50005350080DF350556A546E040E5426000E80
:100A6000552254C0E9FF040E5524EA6EEFCF56F02C
:100A700056AE02D0000E01D0010E016E12004EC023
:100A800053F0DDDF01526EE04E50080DF350546A12
:100A9000536E040E5326000E5422010E5324016E91
:100AA000000E5420036E01C0E9FF040E0324EA6E19
:100AB0004FC0EFFF5150020817E14E50080DF350A0
:100AC000546A536E040E5326000E542253C0E9FF9D
:100AD000040E5424EA6EEFCF52F052AC02D0516AA9
:100AE00002D0010E516E13D05150040810E14E5047
:100AF000080DF350546AE96E040E5424EA6EEFCFE9
:100B000052F052AC03D0010E516E01D0516A512CFB
:100B100003D0480E526E02D0080E526E4E50080D91
:100B2000F350546A536E040E5326000E542253C0E1
:100B3000E9FF040E5424EA6E52C0EFFF4E50080D38
:100B4000F350546A536E040E5326000E542253C0C1
:100B5000E9FF040E5424EA6EEF508009EF6E010E97
:100B6000016E02D0000E016E12004E5200E1120022
:100B70004FC06EFF4F5203E0040E1F6E02D0020EF4
:100B80001F6EC8EF05F01B6A1A6A21C04FF0F0D73C
:100B9000D5EF05F04E5209E11A2C03D0A9EC01F073
:100BA00004D01A500208D8B4EED712001E304C6E92
:100BB0004C324C321F0E4C161E5241E104010051C2
:100BC0003C0B4D6E430E00174D5034081EE104518E
:100BD000800B01E0046B0001BBD66D98203C05D072
:100BE0004E6A030E4F6ECDDE0ED04E6A020E4F6E71
:100BF000C8DE2050FE0807E04E6A506A20C04FF061
:100C0000040E516E3CDF18D004014D50040815E16C
:100C10004E6A0001AADF4E6A020E4F6EB2DE20500D
:100C2000FE080AE0203C01D007D04E6A506A20C07E
:100C30004FF0010E516E23DF04011CD000011E5045
:100C400004080EE120684E6AA5DF203C01D007D0E1
:100C50004E6A506A20C04FF0020E516E10DF09D06C
:100C60001EB404D04CC04EF080DF03D04CC04EF018
:100C700091DF040100016EEF06F0A19A1F52D8B473
:100C800033D06852D8B430D068A403D069B4E9EF47
:100C900000F06DB229D068AA03D069BA04EF01F060
:100CA00068A203D069B20BEF01F068A003D069B06D
:100CB00075EF01F068A803D069B88DEF01F068AC5A
:100CC00003D069BC92EF01F04B6A68A608D069A610
:100CD00006D06CCF1EF002EC00F068D701D004D033
:100CE0004B504B2A0308F1E230EF00F06D926D6A31
:100CF000696A080E6F6E94503009946E1F6A196A03
:100D0000F2BE198EF29E61EC01F019BEF28E8AEFEE
:100D100006F0ECD7B5EF06F0196AF2BE198EF29E16
:100D200061EC01F019BEF28E6D926D6A6D8C00D08F
:100D300000D000006D9C140E6F6E696A6D86010E06
:100D40001F6EA6EF06F06DB601D0E6D71F2C0BD0B4
:100D50006DBA09D0686A696AA08AC00EF212110ED3
:100D6000696E020E1F6E1200D4D7EDDF1F5002080D
:100D7000FCE1E5EF07F01B5202E10400FCD7E7EFCE
:100D800007F0EA6A390EE96EEF500DE0060E016ECB
:100D9000006A002EFED7012EFBD77B0E006E002EC0
:100DA000FED7EF2EF3D7F2EF07F01B50016EFAEFEC
:100DB00007F0196AF2BE198EF29E39C053F03FDE79
:100DC00019BEF28E015242E03950080DF350426ACA
:100DD000416E040E4126000E4222020E4124016E95
:100DE000000E4220036E01C0E9FF040E0324EA6EE8
:100DF000ECCF40F0ED52EFCF3FF040C0EAFF3FC0F4
:100E0000E9FF3BC0E2FF3AC0E1FF3DC002F03CC059
:100E100001F0015202E0022A02D0025206E0E6CFBF
:100E2000EEFF012EFCD7022EFAD7196AF2BE198EF8
:100E3000F29E39C04EF03DC050F03CC04FF03EC075
:100E400051F01DDE19BEF28E015002D0000E016E6F
:100E500009EF08F0036A3950700FE96E0F0E032096
:100E6000EA6EEF520DE03950080DF3503B6A3A6ECE
:100E7000E96E040E3B24EA6EEFCF3CF03CAE02D0AC
:100E8000000E01D0010E016E0CEF08F03E50080D6F
:100E9000F350496A486E020E4824016E000E492044
:100EA000036E01C0E9FF040E0324EA6EECCF44F0A8
:100EB000ED52EFCF43F03E50080DF350496A486EB3
:100EC000010E4824016E000E4920036E01C0E9FFA7
:100ED000040E0324EA6E476AEFCF46F03E50080D39
:100EE000F350496AE96E040E4924EA6EEFCF45F0EB
:100EF00045A001D0478045A201D047824750425CBF
:100F000008E303E14150465C04E247C042F046C0BA
:100F100041F040C0EAFF3FC0E9FF44C0E2FF43C0E8
:100F2000E1FF42C002F041C001F0015202E0022A9A
:100F300002D0025206E0E6CFEEFF012EFCD7022ED1
:100F4000FAD741C001F042C002F0B2EF07F039C059
:100F50003EF03BC040F03AC03FF03DC042F03CC0E4
:100F600041F094D702C03DF001C03CF0196AF2BED6
:100F7000198EF29E39C04EF0020E4F6E02DD19BE80
:100F8000F28E3CC001F03DC002F017EF08F0F86AA5
:100F9000D09E078EC150C00B0F09C16E070EB46EF4
:100FA000000E936E936A8A6AC050C00B0709C06E28
:100FB000C09EC280000E016EC250C30B0110C26EF3
:100FC00095908C8095928C92CFD6BDDED4D695929A
:100FD0008C8295908C90C150C00B0E09C16E010E91
:100FE000396ECFD6C282C2B2FED7386AC4CF37F0CC
:100FF000AADEDBD601521DE037C027F0010E396EA4
:101000003B6A270E3A6E3D6A010E3C6E020E3E6E42
:10101000D0D6010E396E1ED701520BE0010E396E8B
:101020003B6A2F0E3A6E3D6A010E3C6E90D72FC080
:0610300081FFD1D703008F
:087FC80004030904080343004F
:107FD000430053001A0343004300530020004800AD
:107FE000490044002000440065006D006F0012034A
:107FF00031003200330034003500360037003800DD
:020000040030CA
:0E00000024CE201E0007A1000FC00FE00F400D
:00000001FF
;PIC18F4550
;CRC=D0F3  CREATED="22-oct-21 14:42"
