:10000000C5EF02F0F76A140FF66E000EF722090032
:10001000F5501200280C01060C004144433A2025FB
:1000200066004144433A202566004144433A202576
:1000300066004144433A20256600EA6A250EE96ECF
:10004000EF500DE0060E016E006A002EFED7012E65
:10005000FBD77B0E006E002EFED7EF2EF3D71200DB
:100060002B38F00B006E0F0E81140010816E000013
:100070008180030E006E002EFED781901200F00EDC
:10008000936E818400008180000081380F0B2B6EFD
:1000900081900000818000D000D0000081380F0BDB
:1000A0002A6E8190000E936E2B38006EF00E0016B3
:1000B00000502A10016E5FEF00F08192E0D701C07E
:1000C0002AF001BEFBD728A0819228B081820000CF
:1000D00081940000819029382A6E0F0E2A162AC0BA
:1000E0002BF0BEDF29500F0B2A6E2B6EB9DF1200EA
:1000F000000E936E8192819481900F0E256E9DDF8C
:10010000010E176E1750030808E3030E2B6EA8DFCD
:10011000050E256E92DF172AF5D7020E2B6EA0DF93
:10012000176A1750030809E3036A17506BDF186E4C
:10013000286A296EC2DF172AF4D7D0EF02F08E0E9C
:10014000006E1AC001F019C002F0036A015209E101
:1001500002C001F0026A080E005E015202E1006A6C
:1001600008D0D89001BE04D0023601360006F9D777
:10017000019E12002450D8B471D0006E2850D8B41B
:100180006DD0002604E3810E002668E204D07F0EC5
:10019000005E64E363E025C02CF029502C1A258E04
:1001A000298E27502B02F4CF2EF026502A02F4CFAE
:1001B00003F0F3CF2DF02B02F3502E26F4502D2216
:1001C000000E032227502A02F3502E26F4502D222F
:1001D000000E026A0322022225502B02F3502D2624
:1001E000F4500322000E022225502A02F350032667
:1001F000F4500222000E016A012227502902F35016
:100200002D26F4500322000E02220122265029023C
:10021000F3500326F4500222000E01222550290239
:10022000F3500226F4500122002A01BE05D02D36DB
:100230000336023601360006000E2DAE0AD0032A20
:1002400002220122015005E1025003E1035001E1C5
:10025000002A2CBE018E2CAE019E04D0006A016AD9
:10026000026A036A1200010E265CFC0F0EE2040F04
:100270004DEF01F0800E276E08D0C00E276E05D01E
:10028000940E276E02D0D40E276E010E255C272611
:10029000286A27C029F011DF1200E824F76AF73630
:1002A000B50FF66E020EF7220A00F550FA6E08003E
:1002B000F550F96E74027A028002860224500C0A0C
:1002C00005E0060A0DE0020A12E016D0286A010EC7
:1002D000296EF3DE010E046E020E256EAEDE11D025
:1002E000042A010E256E04C026F0BDDF0AD0286A5C
:1002F000100E296EE2DE05D0010E286E24C029F012
:10030000DCDE12000900F5520CE0F6CF17F0F7CF53
:1003100018F0F5CF24F0D2DF17C0F6FF18C0F7FFB2
:10032000F1D7A5EF03F00900F6CF18F0F7CF19F0D9
:10033000F5CF24F0C3DF18C0F6FF19C0F7FF172E62
:10034000F2D712002450B608246E036A25C028F0A4
:10035000258ED890253226322732033202320132DE
:100360000032242EF6D728AE0BD0001E011E021E2E
:10037000031E002AD8B4012AD8B4022AD8B4032A0A
:1003800030EF02F0D8B203D0EA6A2C0EE96E006AB0
:10039000016A026A036A2C6A2D6A2E6A2F6A2B5040
:1003A0002A10291028102CE0200E306ED890243608
:1003B0002536263627362C362D362E362F362B5020
:1003C0002F5C08E12A502E5C05E129502D5C02E1EA
:1003D00028502C5C0FE328502C5E2950D8A0293CD3
:1003E0002D5E2A50D8A02A3C2E5E2B50D8A02B3C44
:1003F0002F5ED8800036013602360336302ED6D72F
:100400002CC0EFFF2DC0ECFF2EC0ECFF2FC0ECFF87
:100410001200E9501C6E1B501E6E19E01AC027F026
:1004200019C026F018C025F017C024F02B6A2A6ADC
:10043000200E296E820E286E9DDE03C01AF002C0C7
:1004400019F001C018F000C017F01E2EE7D71AC02F
:1004500027F019C026F018C025F017C024F072D775
:1004600003C01AF002C019F001C018F000C017F064
:100470001AAE0DD01C061C8A171E181E191E1A1E35
:10048000172AD8B4182AD8B4192AD8B41A2A3B0E75
:10049000236E9A0E226ECA0E216E206A0A0E1E6EFE
:1004A0001B50D8B41C2AD882EA6A170EE96E1AC00B
:1004B00027F019C026F018C025F017C024F023C07B
:1004C0002BF022C02AF021C029F020C028F05ADFEA
:1004D000015000520FE11B281E5C0CE01C500CE088
:1004E0000F0B1E5C01E037E21CBE35D01CBC04D0F3
:1004F000200E2DD0200E1C161CAA0CD01C9A1B50AE
:10050000D8A41C0600501C6E2D0E246ED7DE1C5085
:10051000006E1C6A1B501E5C0AE100501C6E2E0E01
:10052000246ECCDE1C50006E200E1C16000E300E09
:100530001CAA0DD01C9A1B50D8A41C0600501C6E7F
:100540002D0E246EBBDE1C50006E1C6A300E002681
:1005500000C024F0B3DED89223C027F022C026F0DA
:1005600021C025F020C024F02B6A2A6A296A0A0ECD
:10057000286E08DF03C023F002C022F001C021F082
:1005800000C020F01E2E8FD71200F86AD09E166A87
:10059000156AC150C00B0F09C16E070EB46EA8D505
:1005A000C150C00B0B09C16EC050C00B0709C06E13
:1005B000C08EC280000E016EC250C30B0110C26E0D
:1005C000100E006E002EFED70000C282C2B2FED70F
:1005D000C4CF03F0C3CF17F0C4CF18F0C4CF1AF0C4
:1005E000C3CF19F0ACDD03C027F002C026F001C074
:1005F00025F000C024F0CD0E2B6ECC0E2A6E0C0E12
:10060000296E7E0E286EB6DD03C008F002C007F02A
:1006100001C006F000C005F0040E016EC250C30B0D
:100620000110C26E100E006E002EFED70000C282B6
:10063000C2B2FED7C4CF03F0C3CF17F0C4CF18F0B7
:10064000C4CF1AF0C3CF19F07ADD03C027F002C07F
:1006500026F001C025F000C024F0AE0E2B6E470E30
:100660002A6E610E296E7D0E286E84DD03C00CF0AB
:1006700002C00BF001C00AF000C009F0080E016EC4
:10068000C250C30B0110C26E1A6A196E58DD03C046
:1006900027F002C026F001C025F000C024F0C30EF0
:1006A0002B6EF50E2A6E280E296E7D0E286E62DDE9
:1006B000100E006E002EFED70000C282C2B2FED71E
:1006C000C4CF03F0C3CF19F0C4CF1AF038DD03C094
:1006D00010F002C00FF001C00EF000C00DF00C0EC3
:1006E000016EC250C30B0110C26E1A6A196E27DD6B
:1006F00003C027F002C026F001C025F000C024F09E
:10070000AE0E2B6E470E2A6E610E296E7C0E286E81
:1007100031DD100E006E002EFED70000C282C2B284
:10072000FED7C4CF03F0C3CF19F0C4CF1AF007DD52
:1007300003C014F002C013F001C012F000C011F0A9
:10074000180EF66E000EF76EDDD5010E256E266EC4
:100750008ADD1A0EF66E000EF76E050E176EE3DDDB
:10076000890EE96E08C01AF007C019F006C018F02B
:1007700005C017F0020E1B6E4CDE010E256E020E38
:10078000266E71DD220EF66E000EF76E050E176EE8
:10079000CADD890EE96E0CC01AF00BC019F00AC050
:1007A00018F009C017F0020E1B6E33DE010E256E25
:1007B000030E266E58DD2A0EF66E000EF76E050E3D
:1007C000176EB1DD890EE96E10C01AF00FC019F076
:1007D0000EC018F00DC017F0020E1B6E1ADE010ECF
:1007E000256E040E266E3FDD320EF66E000EF76E9D
:1007F000050E176E98DD890EE96E14C01AF013C04D
:1008000019F012C018F011C017F0020E1B6E01DEB5
:0A081000640E256E12DCCED6030044
:020000040030CA
:0E0000003FCC261E0007A1000FC00FE00F40EE
:00000001FF
;PIC18F4550
;CRC=B982  CREATED="25-jul-22 05:50"
