:10000000A1EF02F0F76A140FF66E000EF722090056
:10001000F5501200280C01060C004144433A2025FB
:1000200066004144433A20256600EA6A240EE96EE0
:10003000EF500DE0060E016E006A002EFED7012E75
:10004000FBD77B0E006E002EFED7EF2EF3D71200EB
:100050002BB002D08A9801D08A8893982BB202D014
:100060008A9A01D08A8A939A2BB402D08A9C01D0B2
:100070008A8C939C2BB602D08A9E01D08A8E939E46
:10008000000093968A86030E006E002EFED793968C
:100090008A96120093948A94630E006E002EFED707
:1000A00000D0285203E093948A8402D093948A94D7
:1000B000000093968A9629382A6E0F0E2A162AC0B7
:1000C0002BF0C6DF29500F0B2A6E2B6EC1DF1200FA
:1000D00093948A9493968A960F0E246EA6DF166ADE
:1000E0001650020808E3030E2B6EB2DF050E246ED5
:1000F0009CDF162AF5D7020E2B6EAADF166A165061
:1001000003080CE3036A16507DDF176E286A296E18
:10011000C1DF050E246E89DF162AF1D7ACEF02F09D
:100120008E0E006E17C001F016C002F0036A015275
:1001300009E102C001F0026A080E005E015202E10C
:10014000006A08D0D89001BE04D0023601360006FD
:10015000F9D7019E1200252C01D003D0400E266E47
:1001600001D0266A010E245C262626508009276EBF
:10017000286A296E8FDF120023500C0A05E0060A58
:100180000BE0020A0FE013D0286A010E296E82DF0D
:10019000020E246E4ADF10D0010E246E020E256E70
:1001A000DADF0AD0286A100E296E74DF05D0010E3E
:1001B000286E23C029F06EDF12000900F5520CE012
:1001C000F6CF16F0F7CF17F0F5CF23F0D5DF16C036
:1001D000F6FF17C0F7FFF1D7F3EF00F0180EF66E39
:1001E000000EF76EEAD7F1EF02F00900F6CF17F034
:1001F000F7CF18F0F5CF23F0BFDF17C0F6FF18C018
:10020000F7FF162EF2D712002350D8B471D0006E2B
:100210002750D8B46DD0002604E3810E002668E292
:1002200004D07F0E005E64E363E024C02BF028500E
:100230002B1A248E288E26502A02F4CF2DF025501A
:100240002902F4CF03F0F3CF2CF02A02F3502D262D
:10025000F4502C22000E032226502902F3502D26A2
:10026000F4502C22000E026A0322022224502A0299
:10027000F3502C26F4500322000E022224502902AF
:10028000F3500326F4500222000E016A0122265088
:100290002802F3502C26F4500322000E02220122E1
:1002A00025502802F3500326F4500222000E0122AA
:1002B00024502802F3500226F4500122002A01BEE5
:1002C00005D02C360336023601360006000E2CAE61
:1002D0000AD0032A02220122015005E1025003E163
:1002E000035001E1002A2BBE018E2BAE019E04D0EB
:1002F000006A016A026A036AF9EF01F02350B60846
:10030000236E036A24C027F0248ED890243225322D
:1003100026320332023201320032232EF6D727AEC4
:100320000BD0001E011E021E031E002AD8B4012A93
:10033000D8B4022AD8B4032A0CEF02F0D8B203D002
:10034000EA6A2B0EE96E006A016A026A036A2B6A86
:100350002C6A2D6A2E6A2A502910281027102CE0AA
:10036000200E2F6ED89023362436253626362B368F
:100370002C362D362E362A502E5C08E129502D5C65
:1003800005E128502C5C02E127502B5C0FE327503D
:100390002B5E2850D8A0283C2C5E2950D8A0293CA0
:1003A0002D5E2A50D8A02A3C2E5ED8800036013619
:1003B000023603362F2ED6D72BC0EFFF2CC0ECFF12
:1003C0002DC0ECFF2EC0ECFF1200E9501B6E1A503E
:1003D0001D6E19E019C026F018C025F017C024F0D2
:1003E00016C023F02A6A296A200E286E820E276E14
:1003F0000BD703C019F002C018F001C017F000C0FD
:1004000016F01D2EE7D719C026F018C025F017C02A
:1004100024F016C023F072D703C019F002C018F000
:1004200001C017F000C016F019AE0DD01B061B8AD4
:10043000161E171E181E191E162AD8B4172AD8B44D
:10044000182AD8B4192A3B0E226E9A0E216ECA0EB3
:10045000206E1F6A0A0E1D6E1A50D8B41B2AD8824D
:10046000EA6A160EE96E19C026F018C025F017C00A
:1004700024F016C023F022C02AF021C029F020C0A9
:1004800028F01FC027F05ADF015000520FE11A2850
:100490001D5C0CE01B500CE00F0B1D5C01E037E213
:1004A0001BBE35D01BBC04D0200E2DD0200E1B1639
:1004B0001BAA0CD01B9A1A50D8A41B0600501B6E06
:1004C0002D0E236E59DE1B50006E1B6A1A501D5CE8
:1004D0000AE100501B6E2E0E236E4EDE1B50006E86
:1004E000200E1B16000E300E1BAA0DD01B9A1A50A0
:1004F000D8A41B0600501B6E2D0E236E3DDE1B5034
:10050000006E1B6A300E002600C023F035DED89244
:1005100022C026F021C025F020C024F01FC023F007
:100520002A6A296A286A0A0E276E08DF03C022F0A9
:1005300002C021F001C020F000C01FF01D2E8FD797
:100540001200F86AD09E056A046AC150C00B0F09F8
:10055000C16E070EB46EBCD5C150C00B0D09C16E83
:10056000C050C00B0709C06EC08EC280000E016E65
:10057000C250C30B0110C26E100E006E002EFED7CB
:100580000000C282C2B2FED7C4CF03F0C3CF16F0C0
:10059000C4CF17F0C5DD03C009F002C008F001C0E8
:1005A00007F000C006F0040E016EC250C30B01102C
:1005B000C26E100E006E002EFED70000C282C2B2C4
:1005C000FED7C4CF03F0C3CF16F0C4CF17F0A8DD19
:1005D00003C00DF002C00CF001C00BF000C00AF027
:1005E000FDD5010E246E256EB6DD1A0EF66E000ED8
:1005F000F76E050E166EF9DD890EE96E09C019F069
:1006000008C018F007C017F006C016F0020E1A6EE8
:10061000DCDE010E246E020E256E9DDD220EF66ECE
:10062000000EF76E050E166EE0DD890EE96E0DC048
:1006300019F00CC018F00BC017F00AC016F0020E2B
:0E0640001A6EC3DE640E246EF0DC90D7030049
:020000040030CA
:0E0000003FCC261E0007A1000FC00FE00F40EE
:00000001FF
;PIC18F4550
;CRC=DE00  CREATED="16-jul-22 20:18"
