:10000000F2EF09F068961200046ED8CF05F0E0CF49
:1000100006F00001E9CF0CF0EACF07F0E1CF08F0DD
:10002000E2CF09F0D9CF0AF0DACF0BF0F3CF12F01C
:10003000F4CF13F0FACF14F0F5CF15F0F6CF16F099
:10004000F7CF17F000C00EF001C00FF002C010F0A3
:1000500003C011F0A0AA30EF00F0A1BA46EF06F0FD
:100060000EC000F00FC001F010C002F011C003F08C
:100070000CC0E9FF07C0EAFF078E08C0E1FF09C016
:10008000E2FF0AC0D9FF0BC0DAFF12C0F3FF13C0B2
:10009000F4FF14C0FAFF15C0F5FF16C0F6FF17C035
:1000A000F7FF045006C0E0FF05C0D8FF1000F76A54
:1000B000BE0FF66E000EF7220900F5501200000385
:1000C000FFFFFFFFFFFFFFFFFFFFFFFFFFFFF76ADD
:1000D000DE0FF66E000EF7220900F5501200400008
:1000E0000800000000000000000000000000000008
:1000F0000000000000000000000000000000F76A9F
:100100000E0FF66E010EF7220900F55012000600E0
:10011000FF0901A101190129081580257F7508959E
:1001200002810219012908750895029102C0F76A37
:100130003E0FF66E010EF7220900F5501200000086
:10014000F76A500FF66E010EF7220900F550120003
:100150002000F76A620FF66E010EF7220900F550D3
:100160001200090229000101008032090400000286
:100170000300000009210001000122200007058181
:100180000308000A0705010308000A00F76A9C0F2C
:10019000F66E010EF7220900F55012000100F76A11
:1001A000AE0FF66E010EF7220900F5501200120094
:1001B000F76AC00FF66E010EF7220900F550120023
:1001C00012011001000000400000000000010102C7
:1001D0000001F76AE20FF66E010EF7220900F550F2
:1001E0001200280C01066D92699468A402D06894EC
:1001F000FCD7689852EF06F0400E0401016F040E20
:100200000001606F100E60C003F4E8CF02F4880EA6
:100210000401006F046B040E076F500E066F00019F
:10022000120070A002D0E8DF7090689A59EF06F0D3
:100230006A6A68925EEF06F06C916BBF6C816B9F8F
:100240006B51100803E2000E016E16D06CA10BD0AA
:10025000036A6B512CDFFF0802E1000E01D0010E92
:10026000016E0AD009D0036A6B5121DFFF0802E159
:10027000000E01D0010E016E1200036A6A51700F68
:10028000E96E0F0E0320EA6EEF6A6AC06BF0D4DFEE
:10029000015218E06A51080DF3506C6BE96E040EC0
:1002A0006C25EA6EEF6A6A51080DF3506C6B6B6F48
:1002B000040E6B27000E6C236BC0E9FF040E6C2547
:1002C000EA6EEF6A1200010E696F69510F0805E3CB
:1002D00069C06AF0D2DF692BF8D71200256A246A58
:1002E0005F6A5F520AE1036A5F50260FE96E000EF3
:1002F0000320EA6EEF6A5F2AF4D71B6A010E1C6EB8
:100300001A6A12006B6A696A6A6A686A6E6A706A57
:10031000DADFE4DF160E706E68A602D073DEFCD75B
:100320009F0E6B6E3D0E696E6D9866DF030E1F6E3D
:1003300063EF06F0698469986D8268EF06F0689C47
:100340006DEF06F065C020F012002068120068C052
:1003500001F067C000F06767012A0900F5CFEEFFE2
:10036000002EFBD7012EF9D7F86A1200636B2450D8
:1003700025103EE063513F083BE31D50FC0F26E291
:10038000040F03EF02F023C003F02250E2DE646F9B
:100390001DD023C003F02250B2DE646F17D0C80E08
:1003A0002224656F7F0E2320666FF86AF76E65C0A2
:1003B000F6FFEA6A640EE96E686B010E676FC7DFCD
:1003C00005D023C003F02250F3DE646F222AD8B494
:1003D000232A2450D8B4250624066351632B036ACC
:1003E000500FE96E040E0320EA6E64C0EFFFBFD722
:1003F0002450251004E16351400801E01A6A63C0EB
:1004000065F0A0DF1200E824F76AF736210FF66ED8
:10041000040EF7220A00F550FA6E0800F550F96E46
:10042000860392039E03C203626B236A226A1D6ADB
:1004300004011351010A000109E0030A0DE0010A59
:100440000FE0220A3FE0030A56E071D0256A120E3F
:10045000246E030E1D6E6DD0256A290E246E69D0A0
:10046000020E1D6E626B040112510001625D18E202
:10047000C80E2224636F7F0E2320646FF86A64C065
:10048000F7FF63C0F6FFEA6A650EE96E686B010E5E
:10049000676F5DDF65512226000E2322622BE3D7B2
:1004A000C80E2224636F7F0E2320646FF86AF76EF4
:1004B00063C0F6FFEA6A240EE96E686B010E676F8F
:1004C00046DF37D0036A04011251000168DE036A77
:1004D000226E03C023F0223C02D023520AE023C044
:1004E00003F0225036DE036A246E03C025F021D0CB
:1004F00002D02BDF2DD0036A04011451000117DE56
:10050000036A226E03C023F0223C02D023520DE086
:10051000010E1D6E036A04011451000111DE036A0D
:10052000246E03C025F005D002D00FDF11D00DDFFF
:100530000FD00401175308E1255203E12450165D42
:1005400003E2256A16C424F0010E1A6E00010EDFC4
:100550001200615304E1040E1F6EB5DEB3D0050E28
:100560001F6E040E646F900E636F010E626F625116
:100570000F08D8A0A7D062C06AF07FDE656B036A5F
:10058000625195DDFF084FE0040E656FD89062352B
:10059000036A9DDD0900F5CF03F0666F03C067F0C5
:1005A0006251080DF3506A6B696F010E6925016E87
:1005B000000E6A21036E01C0E9FF040E0324EA6EF7
:1005C00066C0EFFF6251080DF3506A6B696F020E4F
:1005D0006925016E000E6A21036E01C0E9FF040E59
:1005E0000324EA6E64C0ECFFED5263C0EFFFD890C5
:1005F0006235036A6CDD0900F5CF03F06327035011
:100600006423880E686F67A101D0688167A301D059
:1006100068836251080DF3506A6BE96E040E6A2517
:10062000EA6E68C0EFFF036A625141DDFF0834E003
:1006300065836251080DF3506A6B696F040E692778
:10064000000E6A23020E6925016E000E6A21036EF8
:1006500001C0E9FF040E0324EA6E64C0ECFFED5212
:1006600063C0EFFFD8906235036A31DD0900F5CF32
:1006700003F06327035064236251080DF3506A6B43
:10068000696F040E6927000E6A2369C0E9FF040E32
:100690006A25EA6E400EEF6E6551060802E10E0E05
:1006A000656F036A625103DD010801E06589036A31
:1006B0006251700FE96E0F0E0320EA6E65C0EFFF06
:1006C000622B55D7B1EF03F004011151000A00016C
:1006D0000DE0010A14E0020A1FE0060A29E0030AFD
:1006E0002EE00E0A2EE0010A32E040D01CC050F489
:1006F0000401516B020E0001656F24DE38D0040145
:10070000122D07D0010E1C160001656B1BDE03D0F5
:10071000040100011ADE2BD00401122D06D01C8228
:100720000001656B0FDE03D0040100010EDE1FD057
:10073000020E1A6E12C421F0656B04DE18D074DE4E
:1007400016D01BC050F4010E656FFCDD10D0040103
:100750001251010809E312C41BF012C461F0000138
:10076000F8D6656BEFDD0401000101D0EEDDCAEFC4
:1007700004F01BC061F004011151000A000107E000
:100780000A0A0DE0010A28E00D0A38E039D0040118
:10079000506B516B020E0001656FD4DD32D0615396
:1007A00019E0010E615D036AF1DC016E0401145D64
:1007B000D8A002D000010ED0036A1451260FE96EB2
:1007C000000E0320EA6EEFCF50F4010E0001656FBA
:1007D000B9DD01D0BADD15D061530EE0036A040122
:1007E0001451260FE96E000E0320EA6E12C4EFFFCB
:1007F0000001656BA7DD01D0A8DD03D015DE01D0B7
:10080000A4DDCAEF04F0629161BF6281619F62A1C1
:1008100011D06151080DF350646B636F040E6327B0
:10082000000E642363C0E9FF040E6425EA6E880E9F
:10083000EF6E09D06151080DF350646BE96E040E40
:100840006425EA6EEF6A036A6151700F016E0F0E44
:10085000032201C0E9FF03C0EAFFEF9090EF04F02C
:10086000629161BF6281619F62A111D06151080DE7
:10087000F350646B636F040E6327000E642363C040
:10088000E9FF040E6425EA6E840EEF6E0AD0615112
:10089000080DF350646BE96E040E6425EA6E840E55
:1008A000EF6E96EF04F0629161BF6281619F62A179
:1008B00011D06151080DF350656B646F040E64270D
:1008C000000E652364C0E9FF040E6525EA6EEFCFD4
:1008D00063F00AD06151080DF350656BE96E040EA8
:1008E0006525EA6EEFCF63F063AF02D063B502D047
:1008F000000E01D0010E016EA0EF04F014C46BF0E5
:100900009BDC015228E004011151010A000105E0BD
:10091000020A09E0030A0DE01DD014C461F073D788
:10092000656B10DD18D014C461F09AD7656B0ADDD1
:1009300012D00401506B516B14C461F00001B3D7A5
:10094000015204E0010E0401506F0001020E656FB8
:10095000F9DC01D0FADCCAEF04F004011151000106
:10096000F4DCCAEF04F01A6A040110517F0B000A8C
:10097000000107E0010A07E0030A07E0230A07E095
:1009800008D0A2D607D0F5D605D0B8D703D0E5D782
:1009900001D0DBDCFCEF05F06151080DF350676B13
:1009A000E96E040E6725EA6EEFCF63F0625102082C
:1009B00006E163AD02D0626B02D0010E626F62513C
:1009C000030813E1840E636F6151080DF350676BE8
:1009D000666F040E6627000E672366C0E9FF040EEB
:1009E0006725EA6E840EEF6E07D0622D03D0C80E25
:1009F000636F02D0880E636FD8906135036A67EC2D
:100A000000F00900F5CF03F0646F03C065F0615199
:100A1000080DF350676B666F010E6625016E000EC0
:100A20006721036E01C0E9FF040E0324EA6E64C06F
:100A3000EFFF65A101D0638165A301D0638361519C
:100A4000080DF350676BE96E040E6725EA6E63C00C
:100A5000EFFF1200036A6651700FE96E0F0E03205C
:100A6000EA6EEF5212E06651080DF350686B676F43
:100A7000040E6727000E682367C0E9FF040E68258F
:100A8000EA6EEFCF69F069AF02D0000E01D0010E1F
:100A9000016E120061C066F0DDDF01526EE061514F
:100AA000080DF350676B666F040E6627000E672310
:100AB000010E6625016E000E6721036E01C0E9FF7D
:100AC000040E0324EA6E62C0EFFF6451020817E1CE
:100AD0006151080DF350676B666F040E6627000EB8
:100AE000672366C0E9FF040E6725EA6EEFCF65F065
:100AF00065AD02D0646B02D0010E646F13D06451F7
:100B0000040810E16151080DF350676BE96E040EA3
:100B10006725EA6EEFCF65F065AD03D0010E646F17
:100B200001D0646B642D03D0480E656F02D0080EAF
:100B3000656F6151080DF350676B666F040E662791
:100B4000000E672366C0E9FF040E6725EA6E65C0E4
:100B5000EFFF6151080DF350676B666F040E662757
:100B6000000E672366C0E9FF040E6725EA6EEF50AA
:100B70008009EF6E010E016E02D0000E016E1200B0
:100B8000615300E1120062C06EFF625303E0040E85
:100B90001F6E02D0020E1F6ED3EF05F01B6A1A6A99
:100BA00021C062F0F0D7E0EF05F0615309E11A2CA3
:100BB00003D0B6EC01F004D01A500208D8B4EED736
:100BC00012001E305F6E5F325F321F0E5F161E52C4
:100BD00041E1040100513C0B0001606F430E040130
:100BE00000170001605134081EE104010451800B1C
:100BF00001E0046B0001B7D66D98203C05D0616B15
:100C0000030E626FC9DE0ED0616B020E626FC4DE2E
:100C10002050FE0807E0616B636B20C062F0040E99
:100C2000646F38DF16D06051040813E1616BA8DFF0
:100C3000616B020E626FB0DE2050FE080AE0203CBD
:100C400001D007D0616B636B20C062F0010E646F4E
:100C500021DF1AD01E5004080EE12068616BA5DF69
:100C6000203C01D007D0616B636B20C062F0020EA4
:100C7000646F10DF09D01EB404D05FC061F080DF64
:100C800003D05FC061F091DF77EF06F0A19A1F52A9
:100C9000D8B433D06852D8B430D068A403D069B483
:100CA000F3EF00F06DB229D068AA03D069BA11EF52
:100CB00001F068A203D069B218EF01F068A003D078
:100CC00069B082EF01F068A803D069B89AEF01F02B
:100CD00068AC03D069BC9FEF01F05E6A68A608D0DB
:100CE00069A606D06CCF1EF002EC00F06AD701D0E6
:100CF00004D05E505E2A0308F1E230EF00F00C00F1
:100D00004144433A202566004144433A2025660089
:100D10004144433A20256600EA6A520EE96EEF50DC
:100D20000DE0060E016E006A002EFED7012EFBD7E5
:100D30007B0E006E002EFED7EF2EF3D71200583830
:100D4000F00B006E0F0E81140010816E0000818088
:100D5000030E006E002EFED781901200F00E936EEF
:100D6000818400008180000081380F0B586E8190D3
:100D70000000818000D000D0000081380F0B576E3A
:100D80008190000E936E5838006EF00E00160050E1
:100D90005710016ECEEF06F08192E0D701C057F0F8
:100DA00001BEFBD755A0819255B08182000081948D
:100DB000000081905638576E0F0E571657C058F0E6
:100DC000BEDF56500F0B576E586EB9DF1200000E83
:100DD000936E8192819481900F0E526E9DDF010E71
:100DE000446E4450030808E3030E586EA8DF050E56
:100DF000526E92DF442AF5D7020E586EA0DF446A85
:100E0000445003080AE3036A4450E9EC00F0456EDD
:100E1000556A566EC1DF442AF3D7FEEF09F06D9292
:100E20006D6A696A080E6F6E94503009946E1F6A7D
:100E3000196AF2BE198EF29E6EEC01F019BEF28EA6
:100E400023EF07F0ECD74EEF07F0196AF2BE198EC8
:100E5000F29E6EEC01F019BEF28E6D926D6A6D8C91
:100E600000D000D000006D9C140E6F6E696A6D8614
:100E7000010E1F6E3FEF07F06DB601D0E6D71F2CB5
:100E80000BD06DBA09D0686A696AA08AC00EF212E6
:100E9000110E696E020E1F6E1200D4D7EDDF1F50C7
:100EA0000208FCE10DEF0AF01B5202E10400FCD73E
:100EB0000FEF0AF01B50016E15EF0AF08E0E006E58
:100EC00047C001F046C002F0036A015209E102C0C6
:100ED00001F0026A080E005E015202E1006A08D0C9
:100EE000D89001BE04D0023601360006F9D7019E23
:100EF00012005150D8B471D0006E5550D8B46DD096
:100F0000002604E3810E002668E204D07F0E005E16
:100F100064E363E052C059F05650591A528E568E0F
:100F200054505802F4CF5BF053505702F4CF03F003
:100F3000F3CF5AF05802F3505B26F4505A22000EB9
:100F4000032254505702F3505B26F4505A22000EED
:100F5000026A0322022252505802F3505A26F450D9
:100F60000322000E022252505702F3500326F4507F
:100F70000222000E016A012254505602F3505A26F2
:100F8000F4500322000E0222012253505602F35065
:100F90000326F4500222000E012252505602F35052
:100FA0000226F4500122002A01BE05D05A3603362B
:100FB000023601360006000E5AAE0AD0032A02227B
:100FC0000122015005E1025003E1035001E1002A32
:100FD00059BE018E59AE019E04D0006A016A026AB0
:100FE000036A12008E0E006E4450005E45C002F08F
:100FF00046C001F0028E005209E0D890025202E190
:10100000015204E002320132002EF7D745AE05D07E
:10101000011E021E012AD8B4022A7DEF0AF0196AC5
:10102000F2BE198EF29E44C066F014DD19BEF28E37
:10103000015242E04450080DF3504D6A4C6E040ECC
:101040004C26000E4D22020E4C24016E000E4D2047
:10105000036E01C0E9FF040E0324EA6EECCF4BF0EF
:10106000ED52EFCF4AF04BC0EAFF4AC0E9FF46C05D
:10107000E2FF45C0E1FF48C002F047C001F0015265
:1010800002E0022A02D0025206E0E6CFEEFF012E75
:10109000FCD7022EFAD7196AF2BE198EF29E44C00E
:1010A00061F048C063F047C062F049C064F0F2DC10
:1010B00019BEF28E015002D0000E016E8FEF0AF0C1
:1010C000010E535CFC0F0EE2040F7AEF08F0800E65
:1010D000546E08D0C00E546E05D0940E546E02D0DB
:1010E000D40E546E010E525C5426556A54C056F00C
:1010F00053DE1200E824F76AF7360F0FF66E110E72
:10110000F7220A00F550FA6E0800F550F96ECE107D
:10111000D410DA10E01051500C0A05E0060A0DE078
:10112000020A12E016D0556A010E566E35DE010E27
:10113000276E020E526EF0DD11D0272A010E526E7C
:1011400027C053F0BDDF0AD0556A100E566E24DE5C
:1011500005D0010E556E51C056F01EDE120009007A
:10116000F5520CE0F6CF44F0F7CF45F0F5CF51F053
:10117000D2DF44C0F6FF45C0F7FFF1D7F6EF0AF023
:101180000900F6CF45F0F7CF46F0F5CF51F0C3DFB9
:1011900045C0F6FF46C0F7FF442EF2D7120051506B
:1011A000B608516E036A52C055F0528ED890523232
:1011B000533254320332023201320032512EF6D70A
:1011C00055AE0BD0001E011E021E031E002AD8B40D
:1011D000012AD8B4022AD8B4032A5DEF09F0D8B2A4
:1011E00003D0EA6A590EE96E006A016A026A036A6C
:1011F000596A5A6A5B6A5C6A585057105610551003
:101200002CE0200E5D6ED89051365236533654364F
:1012100059365A365B365C3658505C5C08E157509C
:101220005B5C05E156505A5C02E15550595C0FE396
:101230005550595E5650D8A0563C5A5E5750D8A0CB
:10124000573C5B5E5850D8A0583C5C5ED880003656
:101250000136023603365D2ED6D759C0EFFF5AC08D
:10126000ECFF5BC0ECFF5CC0ECFF1200E950496E84
:1012700048504B6E19E047C054F046C053F045C08B
:1012800052F044C051F0586A576A200E566E820ED2
:10129000556E2FDE03C047F002C046F001C045F096
:1012A00000C044F04B2EE7D747C054F046C053F07F
:1012B00045C052F044C051F072D703C047F002C09D
:1012C00046F001C045F000C044F047AE0DD04906DD
:1012D000498A441E451E461E471E442AD8B4452A44
:1012E000D8B4462AD8B4472A3B0E506E9A0E4F6E99
:1012F000CA0E4E6E4D6A0A0E4B6E4850D8B4492A3B
:10130000D882EA6A440EE96E47C054F046C053F0F2
:1013100045C052F044C051F050C058F04FC057F093
:101320004EC056F04DC055F05ADF015000520FE14B
:1013300048284B5C0CE049500CE00F0B4B5C01E083
:1013400037E249BE35D049BC04D0200E2DD0200E46
:10135000491649AA0CD0499A4850D8A449060050C9
:10136000496E2D0E516ED7DE4950006E496A4850C5
:101370004B5C0AE10050496E2E0E516ECCDE495096
:10138000006E200E4916000E300E49AA0DD0499A63
:101390004850D8A449060050496E2D0E516EBBDE50
:1013A0004950006E496A300E002600C051F0B3DE8D
:1013B000D89250C054F04FC053F04EC052F04DC0C0
:1013C00051F0586A576A566A0A0E556E08DF03C014
:1013D00050F002C04FF001C04EF000C04DF04B2E57
:1013E0008FD71200F86AD09E078E416A406AC150BA
:1013F000C00B0F09C16E070EB46EE9D4C150C00B0B
:101400000B09C16EC050C00B0709C06EC08EC280F0
:1014100095908C8095928C9240D52EDD45D59592F5
:101420008C8295908C9028DD45D50152D8B431D16D
:10143000000E016EC250C30B0110C26E100E006E82
:10144000002EFED70000C282C2B2FED7C4CF03F086
:10145000C3CF44F0C4CF45F0C4CF47F0C3CF46F06C
:101460002DDD03C054F002C053F001C052F000C0A3
:1014700051F0CD0E586ECC0E576E0C0E566E7E0E81
:10148000556E37DD03C02BF002C02AF001C029F0F1
:1014900000C028F0040E016EC250C30B0110C26ED2
:1014A000100E006E002EFED70000C282C2B2FED720
:1014B000C4CF03F0C3CF44F0C4CF45F0C4CF47F04E
:1014C000C3CF46F0FBDC03C054F002C053F001C0B0
:1014D00052F000C051F0AE0E586E470E576E610EBE
:1014E000566E7D0E556E05DD03C047F002C046F016
:1014F00001C045F000C044F075D502C043F001C002
:1015000042F042C038F043C039F0010E446E466AE2
:10151000380E456E486A020E476E496E80D5080E39
:10152000016EC250C30B0110C26E476A466EC6DC24
:1015300003C054F002C053F001C052F000C051F09B
:10154000C30E586EF50E576E280E566E7D0E556EF4
:10155000D0DC100E006E002EFED70000C282C2B298
:10156000FED7C4CF03F0C3CF46F0C4CF47F0A6DC0C
:1015700003C033F002C032F001C031F000C030F0DF
:101580000C0E016EC250C30B0110C26E476A466E4C
:1015900095DC03C054F002C053F001C052F000C00B
:1015A00051F0AE0E586E470E576E610E566E7C0EA1
:1015B000556E9FDC100E006E002EFED70000C2821A
:1015C000C2B2FED7C4CF03F0C3CF46F0C4CF47F0BA
:1015D00075DC03C037F002C036F001C035F000C042
:1015E00034F0FE0EF66E0C0EF76EB9D5010E526E8B
:1015F000536E66DD000EF66E0D0EF76E050E446E30
:10160000BFDD890EE96E2BC047F02AC046F029C025
:1016100045F028C044F0020E486E28DE010E526EDE
:10162000020E536E4DDD010E526E030E536E48DDF9
:10163000080EF66E0D0EF76E050E446EA1DD890ED6
:10164000E96E33C047F032C046F031C045F030C0DB
:1016500044F0020E486E0ADE010E526E040E536E06
:101660002FDD100EF66E0D0EF76E050E446E88DD42
:10167000890EE96E37C047F036C046F035C045F0F8
:1016800034C044F0020E486EF1DD640E526E8CECF4
:0616900006F0C9D60300BC
:087FC80004030904080343004F
:107FD000430053001A0343004300530020004800AD
:107FE000490044002000440065006D006F0012034A
:107FF00031003200330034003500360037003800DD
:020000040030CA
:0E00000024CE261E0007A1000FC00FE00F4007
:00000001FF
;PIC18F4550
;CRC=2B8B  CREATED="29-jul-22 19:22"
